:100000000C9463000C948B000C948B000C948B006C
:100010000C948B000C948B000C948B000C94B80700
:100020000C948B000C948B000C948B000C94B608F1
:100030000C948B000C948B000C948B000C948B0014
:100040000C946C080C948B000C943A080C941408D3
:100050000C948B000C948B000C948B000C948B00F4
:100060000C948B000C948B000000000024002700EF
:100070002A000000000023002600290000000008DC
:10008000000201000003040700000000000000005F
:10009000010204081020408001020408102001021F
:1000A0000408102000000000250028002B00040494
:1000B0000404040404040202020202020303030310
:1000C00003030200720911241FBECFEFD8E0DEBF88
:1000D000CDBF12E0A0E0B1E0E2E7F0E202C005909F
:1000E0000D92A831B107D9F723E0A8E1B2E001C031
:1000F0001D92AC38B207E1F710E0C3E6D0E004C0CF
:100100002197FE010E943110C236D107C9F70E9423
:10011000460A0C9437100C9400008F929F92AF9275
:10012000BF92FF920F931F93CF93DF93F090020340
:100130002BE02F1508F44CC02091040308E512E0D1
:10014000021B110927FD1395000F111F000F111F2E
:1001500020910303C8E8D0E0C21BD10927FDD39545
:10016000CC0FDD1FCC0FDD1F4E010D2E000CAA0899
:10017000BB089801012E000C440B550B28193909B6
:100180004A095B09DC010E94BB0E24EB30E040E031
:1001900050E00E94910E820E931EA41EB51E8C1676
:1001A0009D062CF0E801801691060CF4E4012297DC
:1001B000CC0FDD1F2FB7F8948F2D90E0FC01EE0FD0
:1001C000FF1FE80FF91FE352FD4FD283C1832FBFFA
:1001D000DF91CF911F910F91FF90BF90AF909F90B3
:1001E0008F90089596E0899FD0011124A35EBC4FA3
:1001F00090967C936E935F9791E091969C939197E4
:10020000E0918A03F0918B0390918903992339F04F
:10021000309751F0811108C08091390309943097CB
:1002200019F05C968C91FACF0895AF92BF92CF925D
:10023000DF92EF92FF920F931F93CF93DF936C01A6
:100240007B018B01040F151FEB015E01AE18BF0887
:10025000C017D10759F06991D601ED91FC91019039
:10026000F081E02DC6010995892B79F7C501DF9151
:10027000CF911F910F91FF90EF90DF90CF90BF90A3
:10028000AF900895FC01538D448D252F30E0842FCD
:1002900090E0821B930B541710F0CF9608950197AE
:1002A0000895FC01918D828D981761F0A28DAE0F9B
:1002B000BF2FB11D5D968C91928D9F5F9F73928F22
:1002C00090E008958FEF9FEF0895FC01918D828D4E
:1002D000981731F0828DE80FF11D858D90E008951B
:1002E0008FEF9FEF0895FC01918D228D892F90E073
:1002F000805C9F4F821B91098F739927089580E43A
:1003000092E00E94730121E0892B09F420E0822F02
:10031000089580E090E0892B29F00E947F018111EF
:100320000C9400000895FC01A48DA80FB92FB11DF5
:10033000A35ABF4F2C91848D90E001968F7399271B
:10034000848FA689B7892C93A089B1898C918370F9
:1003500080648C93938D848D981306C00288F389F2
:10036000E02D80818F7D80830895EF92FF920F931F
:100370001F93CF93DF93EC0181E0888F9B8D8C8D51
:1003800098131AC0E889F989808185FF15C09FB745
:10039000F894EE89FF896083E889F9898081837008
:1003A000806480839FBF81E090E0DF91CF911F91B7
:1003B0000F91FF90EF900895F62E0B8D10E00F5FD8
:1003C0001F4F0F731127E02E8C8D8E110CC00FB6AE
:1003D00007FCFACFE889F989808185FFF5CFCE0146
:1003E0000E949301F1CFEB8DEC0FFD2FF11DE35A2D
:1003F000FF4FF0829FB7F8940B8FEA89FB898081C9
:100400008062CFCFCF93DF93EC01888D8823B9F042
:10041000AA89BB89E889F9898C9185FD03C080810F
:1004200086FD0DC00FB607FCF7CF8C9185FFF2CF8C
:10043000808185FFEDCFCE010E949301E9CFDF914E
:10044000CF910895833081F028F4813099F0823083
:10045000A9F008958730A9F08830C9F08430B1F44C
:10046000809180008F7D03C0809180008F77809382
:100470008000089584B58F7784BD089584B58F7DFD
:10048000FBCF8091B0008F778093B000089580916A
:10049000B0008F7DF9CFCF93DF93282F30E0F901A3
:1004A000E458FF4F8491F901E057FF4FD491F901CF
:1004B000E255FF4FC491CC23A1F081110E9422028A
:1004C000EC2FF0E0EE0FFF1FEE58FF4FA591B49117
:1004D000EC91ED2381E090E009F480E0DF91CF9191
:1004E000089580E090E0FACF862F0C944B021F9382
:1004F000CF93DF93282F30E0F901E458FF4F849128
:10050000F901E057FF4FD491F901E255FF4FC49133
:10051000CC23A9F0162F81110E942202EC2FF0E0CB
:10052000EE0FFF1FEC55FF4FA591B4918FB7F894D4
:10053000EC91111108C0D095DE23DC938FBFDF91C1
:10054000CF911F910895DE2BF8CF862F642F0C9446
:1005500077029091020189130BC0E2ECF0E0E49184
:100560009FEF90930201E13049F028F0E23061F012
:1005700060E00C94770210926E00FACF90916F00B9
:100580009D7F90936F00F4CF909170009D7F90932A
:10059000700091E09093B0009091B100987F9460CA
:1005A0009093B1001092B300E3CFCF93DF9390E02C
:1005B000FC01E057FF4F249182559F4FFC0184912D
:1005C0008823C9F090E0880F991FFC01E859FF4F7C
:1005D000A591B491FC01EC55FF4FC591D4916111E7
:1005E0000DC09FB7F8948C91209582238C938881BD
:1005F000282328839FBFDF91CF910895623051F463
:100600009FB7F8943C91822F809583238C93E88147
:100610002E2BEFCF8FB7F894EC912E2B2C938FBF0E
:10062000EACF4F925F926F927F928F929F92AF929A
:10063000BF92CF92DF92EF92FF920F931F93CF93CF
:10064000DF9300D000D01F92CDB7DEB78C012A0116
:100650003B01809102018430C9F08F3F09F47FC0D3
:100660000F900F900F900F900F90DF91CF911F91EF
:100670000F91FF90EF90DF90CF90BF90AF909F9041
:100680008F907F906F905F904F900895E2ECF0E034
:1006900084918D8387FDE4CF61E084E00E94D502E0
:1006A0008D81882321F09D81923009F05CC1480141
:1006B000B12CA12C60E072E18AE790E0A5019801DD
:1006C0000E94910E29833A834B835C8369017A01EE
:1006D00081E0C81AD108E108F1089FEFC916D104DA
:1006E000E104F10409F00CF413C160E472E48FE05A
:1006F00090E0A50198010E94910E69017A0181E0C4
:10070000C81AD108E108F1089D81923009F098C01B
:100710008FEFC816D104E104F10409F00CF4DDC137
:1007200060E970ED83E090E0A50198010E94910ED0
:1007300069017A0191E0C91AD108E108F1088FEF47
:10074000C816D104E104F10411F00CF0A3C183E058
:100750009091B100987F892B8093B100E1C084E033
:1007600080930201E2ECF0E094919D839F3F09F4B5
:1007700077CF913029F158F0923009F43FC08D8144
:1007800087FD6ECF61E084E00E94D5028CCF14BC5F
:1007900015BC84B5826084BD85B5816085BDE2EB02
:1007A000F0E0E491F0E0EE0FFF1FEC55FF4F859174
:1007B0009491E4E9F0E0E491E09333021D826CCF80
:1007C0001092800010928100809181008860809357
:1007D000810080918100816080938100E2EBF0E0F4
:1007E000E491F0E0EE0FFF1FEC55FF4F85919491DF
:1007F000E4E9F0E0E491E09332024ECF1092B000D1
:100800001092B1008091B00082608093B00080911E
:10081000B10081608093B100E2EBF0E0E491F0E0A0
:10082000EE0FFF1FEC55FF4F85919491909331028D
:1008300080933002E4E9F0E0E491E0932F022CCFC2
:100840009FEFC916D104E104F10409F00CF489C04A
:1008500068E478EE81E090E0A50198010E94910E95
:1008600069017A0181E0C81AD108E108F1089D8187
:10087000992309F428C19FEFC916D104E104F104BA
:1008800009F00CF41EC162E17AE780E090E0A50176
:1008900094010E94910E69017A0181E0C81AD10881
:1008A000E108F1089D81992309F4EBC08FEFC81688
:1008B000D104E104F10411F008F0BFC086E048CF94
:1008C00064E274EF80E090E0A50194010E94910E33
:1008D00069017A0181E0C81AD108E108F10885E0D0
:1008E0009FEFC916D104E104F10409F008F430CFF8
:1008F00062E17AE780E090E0A50194010E94910E08
:1009000069017A0191E0C91AD108E108F108CECF56
:1009100081E09D8191111CCF95B5987F892B85BD74
:100920002FEF3FEFA901411451046104710409F054
:1009300043C09D81913009F45EC0923009F46DC0CE
:1009400091118ECEC7BC20933C0230933D02409360
:100950003E0250933F0280916E00826080936E0051
:100960007FCE82E0D6CFB12CA12C60E072E18AE785
:1009700090E0A50198010E94910E69017A0181E041
:10098000C81AD108E108F108C114D10491E0E906C0
:10099000F10404F591E08D81813011F680918100A0
:1009A000887F892B809381002FEF3FEFA9014114AD
:1009B000510461047104F9F0D801AA0FBB1FA3010F
:1009C00092010E94B00E28EE33E040E050E00E9419
:1009D000C30EAFCF68E478EE81E090E0A501980106
:1009E0000E94910E69017A0181E0C81AD108E108DC
:1009F000F10893E0D0CFD0928900C0928800209374
:100A000038023093390240933A0250933B0280916E
:100A10006F00826080936F0023CEC092B30020935A
:100A2000340230933502409336025093370280915E
:100A3000700082608093700013CEC980DA80EB80F2
:100A4000FC809AE0F594E794D794C7949A95D1F7EF
:100A500091E0C91AD108E108F10887E079CEC98090
:100A6000DA80EB80FC808AE0F594E794D794C79411
:100A70008A95D1F791E0C91AD108E108F10885E01B
:100A80004BCF8FEFC816D104E104F10409F038F719
:100A900084E042CF68E478EE81E090E0A50198011F
:100AA0000E94910E69017A0191E0C91AD108E1080A
:100AB000F1088FEFC816D104E104F10411F00CF035
:100AC000FFCE84E045CE8FEFC816D104E104F104D7
:100AD00011F00CF0D8CE83E01FCF82E039CE862F04
:100AE000642F0C94D5023FB7F89480911E02909128
:100AF0001F02A0912002B091210226B5A89B05C03B
:100B00002F3F19F00196A11DB11D3FBFBA2FA92F8C
:100B1000982F8827BC01CD01620F711D811D911D89
:100B200042E0660F771F881F991F4A95D1F70895F5
:100B30008F929F92AF92BF92CF92DF92EF92FF92ED
:100B40006B017C010E9473054B015C01C114D1044F
:100B5000E104F104B9F00E947305681979098A0962
:100B60009B09683E73408105910580F321E0C21A1C
:100B7000D108E108F10888EE880E83E0981EA11CD8
:100B8000B11CE4CFFF90EF90DF90CF90BF90AF907B
:100B90009F908F9008952FB7F89460911A027091EA
:100BA0001B0280911C0290911D022FBF08950F938C
:100BB0001F93CF93DF93C82FD62F86E0C89FF001F5
:100BC0001124E35EFC4F11A2878D90A18130910525
:100BD000F1F058F082309105F1F1039709F440C02B
:100BE000DF91CF911F910F9108956623C9F361E0C2
:100BF00070E08C2F0E94F2000E94CB056093750379
:100C0000709376038093770390937803E9CF0E94E3
:100C1000CB050091750310917603209177033091F5
:100C20007803AB01BC01401B510B620B730B80912D
:100C3000870390918803B0E0A0E084179507A6078A
:100C4000B70748F462E070E08C2FDF91CF911F91DD
:100C50000F910C94F20063E070E0D111C1CFF4CF9A
:100C600070E060E0F1CF089590E080E00895CF93C8
:100C7000DF93EC0160E08E810E94770261E08E815B
:100C80000E94770260E08E810E9477028BE891E0FB
:100C90000197F1F7DF91CF910895CF92DF92EF9214
:100CA000FF920F931F93CF93DF936C017C0187E03A
:100CB000E80EF11CD0E0C0E0062F10E0B8010C2EC9
:100CC00002C0759567950A94E2F76170F70181910A
:100CD0007F010E9477022196C430D10579F7C601C1
:100CE000DF91CF911F910F91FF90EF90DF90CF9008
:100CF0000C943706CF92DF92EF92FF920F931F93DF
:100D0000CF93DF93EC01F62E642F8C810E94770243
:100D10008D818F3F19F060E00E9477020F2D10E067
:100D20008F8584FF25C06E0187E0C80ED11CF12C91
:100D3000E12CB8010E2C02C0759567950A94E2F774
:100D40006170F60181916F010E947702FFEFEF1A47
:100D5000FF0A88E0E816F10461F7CE01DF91CF9138
:100D60001F910F91FF90EF90DF90CF900C9437067A
:100D7000B80184E0759567958A95E1F7CE010E94E8
:100D80004D066F2DCE01DF91CF911F910F91FF90F6
:100D9000EF90DF90CF900C944D0640E0682F85E0F7
:100DA00093E00C947A0681E00E94CD068BE39FE1EC
:100DB0000197F1F70895CF93DF93823029F4909152
:100DC00014039860909314038093180310921903EE
:100DD00080E480931A0380E180931B0380E5809375
:100DE0001C0361E0809109030E94D50280910A03EF
:100DF0008F3F19F061E00E94D50261E080910B0302
:100E00000E94D502C5E0D3E09E0125503340809179
:100E1000140384FD0BC084E090E021962817390765
:100E200044F461E08E810E94D502EECF88E090E02C
:100E3000F4CF8BE39DE00197F1F760E08091090327
:100E40000E94770260E080910B030E9477028091FC
:100E50000A038F3F19F060E00E947702809114032B
:100E600084FD34C063E085E093E00E944D06CBE44E
:100E7000D6E4CE010197F1F763E085E093E00E94AC
:100E80004D062197F1F763E085E093E00E944D065F
:100E900083E592E00197F1F762E085E093E00E943C
:100EA0004D068091140380620E94CD0684E08093F9
:100EB00015038CE00E94CD060E94D30682E0809349
:100EC000160386E0DF91CF910C94CD0680620E94DC
:100ED000CD068BE496E40197F1F7809114038062CC
:100EE0000E94CD0683E592E00197F1F7809114030B
:100EF00080620E94CD06D5CF90911803691710F03B
:100F00006FEF690FE62FF0E0EB5FFC4F9489890FDC
:100F100080680C94CD0641E00E947A0681E090E062
:100F20000895FB0101900020E9F73197AF01461BBE
:100F3000570BDC01ED91FC910280F381E02D0994C7
:100F4000BC0185E093E00C949107CF93DF93BC0143
:100F500080E492E00E949107EC016AE671E080E48F
:100F600092E00E9491078C0F9D1FDF91CF91089511
:100F70001F920F920FB60F9211242F933F934F930E
:100F80005F936F937F938F939F93AF93BF93EF93F1
:100F9000FF938091340290913502A0913602B09176
:100FA0003702892B8A2B8B2BD1F190912F02E09164
:100FB0003002F09131028081892780838091340250
:100FC00090913502A0913602B09137021816190699
:100FD0001A061B069CF48091340290913502A09170
:100FE0003602B09137020197A109B109809334020A
:100FF00090933502A0933602B0933702FF91EF91A0
:10100000BF91AF919F918F917F916F915F914F9120
:101010003F912F910F900FBE0F901F9018958091C8
:1010200002010E94A902EACF1F920F920FB60F92FF
:1010300011242F933F934F935F936F937F938F93DD
:101040009F93AF93BF93EF93FF9380E492E00E944E
:101050009301FF91EF91BF91AF919F918F917F91FC
:101060006F915F914F913F912F910F900FBE0F9015
:101070001F9018951F920F920FB60F9211242F9365
:101080008F939F93EF93FF93E0915002F091510261
:101090008081E0915602F091570282FD1BC0908141
:1010A000809159028F5F8F7320915A02821741F00D
:1010B000E0915902F0E0E05CFD4F958F809359027A
:1010C000FF91EF919F918F912F910F900FBE0F90F5
:1010D0001F9018958081F4CF1F920F920FB60F9238
:1010E00011242F933F938F939F93AF93BF9380913E
:1010F0001A0290911B02A0911C02B0911D02309126
:10110000190223E0230F2D3758F50196A11DB11DBB
:101110002093190280931A0290931B02A0931C0241
:10112000B0931D0280911E0290911F02A091200297
:10113000B09121020196A11DB11D80931E029093D2
:101140001F02A0932002B0932102BF91AF919F9103
:101150008F913F912F910F900FBE0F901F90189578
:1011600026E8230F0296A11DB11DD2CF1F920F9228
:101170000FB60F9211242F933F934F935F936F936A
:101180007F938F939F93AF93BF93CF93DF93EF930F
:10119000FF9380911802C0910103D0E087FF24C023
:1011A0001092850010928400809118028F5F8093C6
:1011B000180280911802082E000C990B8C179D07BD
:1011C00024F4809118028C30C4F1809184009091B5
:1011D0008500049680349C4908F47AC0809184008C
:1011E00090918500049676C080911802082E000C1C
:1011F000990B8C179D07C4F6E09118028E2FEE0F05
:10120000990BFC01EE0FFF1FE80FF91FE352FD4F92
:10121000808186FFC9CFE09118028E2FEE0F990BC7
:10122000FC01EE0FFF1FE80FF91FE352FD4F808115
:1012300060E08F730E947702B7CF209184003091D5
:101240008500E09118028E2FEE0F990BFC01EE0F36
:10125000FF1FE80FF91FE352FD4F81819281820F3A
:10126000931F9093890080938800E09118028E2F3D
:10127000EE0F990BFC01EE0FFF1FE80FF91FE35271
:10128000FD4F808186FF11C0E09118028E2FEE0F76
:10129000990BFC01EE0FFF1FE80FF91FE352FD4F02
:1012A000808161E08F730E947702FF91EF91DF915F
:1012B000CF91BF91AF919F918F917F916F915F91EE
:1012C0004F913F912F910F900FBE0F901F90189547
:1012D00080E49CE990938900809388008FEF80934D
:1012E0001802E3CFCF93109243021092420288EE8D
:1012F00093E0A0E0B0E08093440290934502A09375
:101300004602B093470286E491E0909341028093B5
:10131000400285EC90E090934D0280934C0284EC67
:1013200090E090934F0280934E0280EC90E0909377
:1013300051028093500281EC90E09093530280938D
:10134000520282EC90E0909355028093540286EC16
:1013500090E0909357028093560210925902109297
:101360005A0210925B0210925C0210921F031092BC
:101370002303109222031092240384E691E09093B9
:101380001E0380931D03E9E3F3E0108214821382AD
:101390001582369683E0E537F807B9F786E091E0E5
:1013A0009093800380937F0383E091E09093820386
:1013B0008093810383E0809383038093840389E097
:1013C00091E090937E0380937D038AE090E0909378
:1013D00086038093850384EF91E090938803809344
:1013E000870310928B0310928A0310927903109254
:1013F0007A0310927B0310927C031092890310925F
:1014000008031092070388E591E090930603809308
:1014100005038DE080930903CFEFC0930A0389E0B1
:1014200080930B0388E080930C0387E080930D0387
:1014300086E080930E0385E080930F0310921003E3
:1014400010921103109212031092130310921403BE
:1014500081E00E94DB06809101038C30A0F491E0D2
:10146000980F909301038093020390E0FC01EE0F2C
:10147000FF1FE80FF91FE352FD4F88EB9BE09283BB
:101480008183CF910895C0930203FBCFCF93DF9365
:10149000CDB7DEB7A1970FB6F894DEBF0FBECDBFB4
:1014A000789484B5826084BD84B5816084BD85B53F
:1014B000826085BD85B5816085BD80916E0081604B
:1014C00080936E00109281008091810082608093F1
:1014D00081008091810081608093810080918000F3
:1014E0008160809380008091B10084608093B1001E
:1014F0008091B00081608093B00080917A00846018
:1015000080937A0080917A00826080937A00809143
:101510007A00816080937A0080917A00806880935D
:101520007A001092C10082E00E94DB06E091500236
:10153000F091510282E08083E0914C02F0914D02E3
:101540001082E0914E02F0914F028FEC8083109256
:101550005802E0915402F091550286E08083E091B8
:101560005202F0915302808180618083E0915202A7
:10157000F0915302808188608083E0915202F09163
:101580005302808180688083E0915202F09153027F
:1015900080818F7D808361E083E00E94D50261E0DD
:1015A00082E00E94D502809102038C3008F051C085
:1015B00061E082E10E94D50280910203282F30E091
:1015C000F901EE0FFF1FE20FF31FE352FD4F908171
:1015D000907C9261908310920303109204032CE09C
:1015E000622F0E942510829FB001112430E020E07C
:1015F000AB01420F531FFA01EE0FFF1FE40FF51F5F
:10160000E352FD4F908196FD16C02F5F3F4F2C3067
:10161000310571F781110FC01092800082E0809334
:1016200081001092850010928400B19A80916F0021
:10163000826080936F00E09102038E2F90E0FC01A6
:10164000EE0FFF1FE80FF91FE352FD4F808180640A
:10165000808390E080E00E948D0022242A94322C26
:101660007AE0472E512C612C712C51E05093890364
:101670000E94CB050091790310917A0320917B039E
:1016800030917C03AB01BC01401B510B620B730B0F
:101690008091850390918603B0E0A0E084179507C0
:1016A000A607B70708F023C110E08091830318173D
:1016B00060F4E0917F03F0918003E10FF11D62E09F
:1016C00080810E94D5021F5FF0CF912C809184030E
:1016D000981608F063C0E92CF12CE0918103F09199
:1016E0008203EE0DFF1D61E080810E94D502E09132
:1016F0008103F0918203EE0DFF1D60E080810E9466
:10170000770281E090E0A0E0B0E0092C04C0880FEF
:10171000991FAA1FBB1F0A94D2F75C016C01C094E9
:10172000D094812C80918303881608F5082D10E051
:10173000E0917F03F0918003E00FF11F80810E9410
:101740004B020C5F1F4F000F111FF801E35EFC4FAF
:10175000892B41F4808191818A299B2991838083FF
:101760008394E0CF808191818C219D21F7CFE091FE
:101770008103F0918203EE0DFF1D61E080810E94E4
:1017800077028091810390918203E80EF91E60E058
:10179000F70180810E94D502939498CF4DE1E42E09
:1017A00043E0F42E8701F801878D90A1892B21F465
:1017B000148E368E258E11A20A5F1F4FF3E0093575
:1017C0001F0789F7D12C80918303D81608F053C0E6
:1017D000C12CAD2CB12CAA0CBB1CC5018B5D9C4F40
:1017E0005C0120918403C21608F043C0F5016081BA
:1017F00071810C2C02C0769567950A94E2F7D29E0F
:10180000900111242C0D311DEDE1F3E080E0458DB8
:10181000568D2417350709F482C28F5F36968A30B9
:10182000B1F760FF24C0EDE1F3E090E080E0448D8B
:10183000411118C0E0917D03F0917E03E20FF31F88
:10184000408156E0589FF001599FF00D1124E35E4E
:10185000FC4F448F368F258F10A2178E61E00E94B7
:10186000D70505C0019636968A30910501F7C394D5
:10187000B8CFD394A8CFD12CF70181A18111D82E54
:10188000F6E0EF0EF11C0E151F05B1F70E94CB0517
:101890006093790370937A0380937B0390937C0326
:1018A000DD2029F180913E03882309F180913C03DA
:1018B00090913D030197D9F4F0903903F0922E02F4
:1018C000F1101AC060E080E00E947C078DE691E094
:1018D0000E94A00780E090E0892B09F4C6CE0E9408
:1018E0007F01882309F4C1CE0E940000BECE109271
:1018F000890310922E02E6CF00912C0210912D0246
:1019000026E0E22EE00E61E08E2D0E947C0741E091
:101910006F2D85E093E00E947A066AEF70E080E028
:1019200090E00E94980561E08E2D0E947C0741E0C6
:101930006AE285E093E00E947A0680ED8F0D809345
:101940002E020F5F1F4F10932D0200932C020230C6
:10195000110509F4C4C064F40130110509F0BACFCF
:10196000082E000C990B90932B0280932A02B2CF81
:101970000330110509F4BBC00430110509F0AACFEA
:10198000082E000C990B909325028093240220913D
:101990002A0230912B022130310509F0B0C020918C
:1019A0002802309129022230310509F0A8C0209187
:1019B0002602309127022330310509F0A0C0049798
:1019C00009F09DC01092230210922202309301016F
:1019D000209300010E94D30660E085E00E947C070E
:1019E0008EE791E00E94A00761E084E00E947C07FE
:1019F00084E891E00E94A0078DE891E00E94A5078D
:101A000061E083E00E94770202E211E092E1E92EB8
:101A100091E0F92EF801819091908F01092C000C32
:101A2000AA08BB08B501A401F701819191917F013A
:101A30000E941103C501B4010E942C0F2DEC3CEC57
:101A40004CE85FE30E94900F0E94F40E072E000CFA
:101A5000880B990B0E94980584E00E94A902F1E08E
:101A600002331F07B9F60E94D30684EB90E00E9470
:101A70008D0060E084E00E947C078DE991E00E9487
:101A8000A00761E083E00E947C0784EA91E00E9465
:101A9000A0070E94CB058B010E94CB05601B710B38
:101AA00068387341C8F310922D0210922C021092E4
:101AB000250210922402109223021092220283E047
:101AC00090E0909301018093000160E00E94770212
:101AD00090E080E00E948D000E94D306FBCE082E8D
:101AE000000C990B9093290280932802F3CE082EC4
:101AF000000C990B9093270280932602EBCE0E9454
:101B0000D30660E086E00E947C078EE791E00E94A9
:101B1000A00761E083E00E947C0788EB91E00E94CF
:101B2000A00761E082E00E9477020AE311E082E30D
:101B3000E82E81E0F82EF801819091908F01092C18
:101B4000000CAA08BB08B501A401F701819191918D
:101B50007F010E941103C501B4010E942C0F2DECDE
:101B60003CEC4CE85FE30E94900F0E94F40E072EBD
:101B7000000C880B990B0E94980584E00E94A90232
:101B8000F1E002341F07B9F60E94D30660E082E05C
:101B90000E9477028EEA91E00E94A50780912202BE
:101BA00090912302019690932302809322028091C8
:101BB0000001909101010197909301018093000130
:101BC00060E082E00E947C0783EC91E00E94A00725
:101BD00060E08DE00E947C07C0900001D090010180
:101BE0000D2C000CEE08FF08F7FE78C041E06DE216
:101BF00085E093E00E947A0622273327A9012C1959
:101C00003D094E095F0919A28E010F5D1F4FCA01E0
:101C1000B901A30192010E94C30E605DF8016293B5
:101C20008F01211531054105510589F70115110570
:101C300029F0B80185E093E00E94910761E082E01D
:101C40000E947C078EEC91E00E94A0078091000129
:101C500090910101892B09F057C00E94D30660E0E2
:101C600085E00E947C078AED91E00E94A00761E078
:101C700084E00E947C0781EE91E00E94A0078AEE3A
:101C800091E00E94A50760E081E00E947C078FEF51
:101C900091E00E94A00761E084E00E947C078EE052
:101CA00092E00E94A0078091220290912302039764
:101CB0005CF161E082E00E94770264EF71E080E015
:101CC00090E00E94980560E082E00E94770262E363
:101CD00070E080E090E00E949805E5CFA7019601B2
:101CE00019A28E010F5D1F4FCA01B901A301920114
:101CF0000E94C30E605DF80162938F0121153105CA
:101D00004105510589F792CF64EF71E080E090E0E2
:101D10000E94980510922D0210922C02DDCE617067
:101D20009ECD052E97FB1EF400940E94A80E57FD31
:101D300007D00E94C30E07FC03D04EF40C94A80EEB
:101D400050954095309521953F4F4F4F5F4F0895E7
:101D500090958095709561957F4F8F4F9F4F089517
:101D60000E94E50EA59F900DB49F900DA49F800D3D
:101D7000911D11240895B7FF0C94B00E0E94B00E6F
:101D8000821B930B0895A1E21A2EAA1BBB1BFD0117
:101D90000DC0AA1FBB1FEE1FFF1FA217B307E4074A
:101DA000F50720F0A21BB30BE40BF50B661F771FA2
:101DB000881F991F1A9469F7609570958095909582
:101DC0009B01AC01BD01CF010895A29FB001B39F5B
:101DD000C001A39F700D811D1124911DB29F700D34
:101DE000811D1124911D08950E94FB0E6894B1116C
:101DF0000C948A0F08950E946F0F88F09F5798F0F7
:101E0000B92F9927B751B0F0E1F0660F771F881FFF
:101E1000991F1AF0BA95C9F714C0B13091F00E9419
:101E2000890FB1E008950C94890F672F782F8827C8
:101E3000B85F39F0B93FCCF3869577956795B39540
:101E4000D9F73EF490958095709561957F4F8F4FAF
:101E50009F4F0895E89409C097FB3EF490958095B4
:101E6000709561957F4F8F4F9F4F9923A9F0F92F60
:101E700096E9BB279395F695879577956795B795DE
:101E8000F111F8CFFAF4BB0F11F460FF1BC06F5FC4
:101E90007F4F8F4F9F4F16C0882311F096E911C0D6
:101EA000772321F09EE8872F762F05C0662371F0F7
:101EB00096E8862F70E060E02AF09A95660F771F0B
:101EC000881FDAF7880F9695879597F9089557FD3B
:101ED0009058440F551F59F05F3F71F04795880F98
:101EE00097FB991F61F09F3F79F08795089512162F
:101EF00013061406551FF2CF4695F1DF08C01616DB
:101F000017061806991FF1CF86957105610508948B
:101F10000895E894BB2766277727CB0197F90895A2
:101F20000E94A30F0C9414100E94061038F00E9417
:101F30000D1020F0952311F00C94FD0F0C9403105C
:101F400011240C948A0F0E94670F70F3959FC1F3C0
:101F5000950F50E0551F629FF001729FBB27F00D57
:101F6000B11D639FAA27F00DB11DAA1F649F6627AC
:101F7000B00DA11D661F829F2227B00DA11D621FFB
:101F8000739FB00DA11D621F839FA00D611D221FB5
:101F9000749F3327A00D611D231F849F600D211D99
:101FA000822F762F6A2F11249F5750409AF0F1F01C
:101FB00088234AF0EE0FFF1FBB1F661F771F881F85
:101FC00091505040A9F79E3F510580F00C94FD0FB1
:101FD0000C948A0F5F3FE4F3983ED4F3869577958F
:101FE0006795B795F795E7959F5FC1F7FE2B880F2B
:101FF000911D9695879597F9089597F99F6780E8C1
:1020000070E060E008959FEF80EC089500240A944A
:102010001616170618060906089500240A941216C3
:102020001306140605060895092E0394000C11F4F6
:10203000882352F0BB0F40F4BF2B11F460FF04C0A3
:102040006F5F7F4F8F4F9F4F0895991B79E004C0BA
:10205000991F961708F0961B881F7A95C9F78095E7
:102060000895EE0FFF1F0590F491E02D0994F89468
:02207000FFCFA0
:102072000300FF0E0F100C0B0A31323334353637A2
:102082003839700300001704000070030000970441
:102092000000D2001400D2001400D2001400D200BA
:1020A2001400BA0200004B02000090011400580212
:1020B200140000000000B501150142010202730183
:1020C20051016501000000008B071501340633063B
:1020D200000000006F05A50274020D0A00496E6738
:1020E20072657365206C6120636C61766500436C78
:1020F20061766500436F7272656374610061636348
:1021020065736F436F6E63656469646F0041434337
:1021120045534F00434F4E43454449444F00636F7C
:102122006E74726173656E61496E636F727265631C
:102132007461004C452051554544413A20004F50AE
:102142004F5254554E4944414400414C41524D4135
:1021520000414354495641444100616C65727461C7
:10216200496E677265736F46616C6C69646F00419A
:102172006C6572746120506F6C6963696100496EAD
:08218200747275736F730000A5
:00000001FF
